:020000040800F2
:10000000000002202D140008690600086B06000895
:100010006D0600086F060008710600080000000069
:10002000000000000000000000000000730600084F
:100030007506000800000000770600087906000831
:100040007D1400087D1400087D1400087D1400084C
:100050007D1400087D1400087D1400087D1400083C
:100060007D1400087D1400087D1400087D1400082C
:100070007D1400087D1400087D1400087D1400081C
:100080007D1400087D1400087D1400087D1400080C
:100090007D1400087D1400087D1400087D140008FC
:1000A0007D1400087D1400087D1400087D140008EC
:1000B0007D1400087D1400087D1400087D140008DC
:1000C0007D1400087D1400087D1400087D140008CC
:1000D0007D1400087D1400087D1400087D140008BC
:1000E0007D1400087D1400087D1400087D140008AC
:1000F0007D1400087D1400087D1400087D1400089C
:100100007D1400087D1400087D1400087D1400088B
:100110007D1400087D1400087D1400087D1400087B
:100120007D1400087D1400087D1400087D1400086B
:100130007D1400087D1400087D1400087D1400085B
:100140007D1400087D1400087D1400087D1400084B
:100150007D1400087D1400087D1400087D1400083B
:100160007D1400087D1400087D1400087D1400082B
:100170007D1400087D1400087D14000800000000B4
:080180007D1400087D14000845
:1001880010B5054C237833B9044B13B10448AFF3C9
:1001980000800123237010BD7000002000000000C3
:1001A800DC1E000808B5034B1BB103490348AFF335
:1001B800008008BD0000000074000020DC1E00085C
:1001C80053B94AB9002908BF00281CBF4FF0FF31B6
:1001D8004FF0FF3000F074B9ADF1080C6DE904CEB2
:1001E80000F006F8DDF804E0DDE9022304B070470A
:1001F8002DE9F047089D04468E46002B4DD18A42D2
:10020800944669D9B2FA82F252B101FA02F3C2F104
:10021800200120FA01F10CFA02FC41EA030E944095
:100228004FEA1C48210CBEFBF8F61FFA8CF708FBB6
:1002380016E341EA034306FB07F199420AD91CEB8E
:10024800030306F1FF3080F01F81994240F21C81C0
:10025800023E63445B1AA4B2B3FBF8F008FB103308
:1002680044EA034400FB07F7A7420AD91CEB04043D
:1002780000F1FF3380F00A81A74240F2078164440D
:10028800023840EA0640E41B00261DB1D440002392
:10029800C5E900433146BDE8F0878B4209D9002DF6
:1002A80000F0EF800026C5E9000130463146BDE880
:1002B800F087B3FA83F6002E4AD18B4202D38242EA
:1002C80000F2F980841A61EB030301209E46002D99
:1002D800E0D0C5E9004EDDE702B9FFDEB2FA82F2EE
:1002E800002A40F09280A1EB0C014FEA1C471FFA4C
:1002F8008CFE0126200CB1FBF7F307FB131140EA33
:1003080001410EFB03F0884208D91CEB010103F1FF
:10031800FF3802D2884200F2CB804346091AA4B2C1
:10032800B1FBF7F007FB101144EA01440EFB00FE95
:10033800A64508D91CEB040400F1FF3102D2A645FA
:1003480000F2BB800846A4EB0E0440EA03409CE799
:10035800C6F12007B34022FA07FC4CEA030C20FA46
:1003680007F401FA06F31C43F9404FEA1C4900FA66
:1003780006F3B1FBF9F8200C1FFA8CFE09FB1811E3
:1003880040EA014108FB0EF0884202FA06F20BD956
:100398001CEB010108F1FF3A80F08880884240F2A6
:1003A8008580A8F102086144091AA4B2B1FBF9F0EA
:1003B80009FB101144EA014100FB0EFE8E4508D9E5
:1003C8001CEB010100F1FF346CD28E456AD902386A
:1003D800614440EA0840A0FB0294A1EB0E01A1424F
:1003E800C846A64656D353D05DB1B3EB080261EBBD
:1003F8000E0101FA07F722FA06F3F1401F43C5E997
:10040800007100263146BDE8F087C2F12003D840CC
:100418000CFA02FC21FA03F3914001434FEA1C470E
:100428001FFA8CFEB3FBF7F007FB10360B0C43EA00
:10043800064300FB0EF69E4204FA02F408D91CEBB0
:10044800030300F1FF382FD29E422DD902386344AE
:100458009B1B89B2B3FBF7F607FB163341EA03414E
:1004680006FB0EF38B4208D91CEB010106F1FF389D
:1004780016D28B4214D9023E6144C91A46EA004694
:1004880038E72E46284605E70646E3E61846F8E626
:100498004B45A9D2B9EB020864EB0C0E0138A3E76F
:1004A8004646EAE7204694E74046D1E7D0467BE750
:1004B800023B614432E7304609E76444023842E7C8
:1004C800704700BF72B6FEE700B595B03022002134
:1004D80008A800F0F5FF00230393049305930693FF
:1004E80007930193204A116C41F080511164126CFA
:1004F80002F080520192019A02931C4B1A6842F44E
:1005080080421A601B6803F480430293029B012314
:1005180008934FF48033099302220E924FF480031C
:100528000F9304231093A82111911292139308A8F2
:1005380000F0BEF898B90F23039302230493002315
:1005480005934FF4A05306934FF480530793052166
:1005580003A800F013FB20B915B05DF804FBFFF702
:10056800B1FFFFF7AFFF00BF003802400070004046
:1005780008B500F05FFDFFF7A7FF00F025F800F0D1
:10058800A3FD0D4C4021204600F0C6FC4FF4FA7044
:1005980000F07CFD094801F009F80A2311220849F6
:1005A800084800F0D2FE8021204600F0B5FC4FF448
:1005B800FA7000F06BFDE4E700000240F41E00084A
:1005C8001C1F00089000002030B58BB00024059453
:1005D800069407940894099401941F4B1A6B42F0EF
:1005E80004021A631A6B02F004020192019A02943F
:1005F8001A6B42F080021A631A6B02F080020292B0
:10060800029A03941A6B42F001021A631A6B02F001
:1006180001020392039A04941A6B42F002021A63CD
:100628001B6B03F002030493049B0C4D22464021EC
:10063800284600F06BFC01228021284600F066FC69
:10064800C0230593012306930794089405A9284617
:1006580000F06AFB0BB030BD0038024000000240D9
:10066800FEE7FEE7FEE7FEE7FEE7704770477047E4
:1006780008B500F0F9FC08BD82B0002100910B4BD1
:100688005A6C42F480425A645A6C02F480420092D6
:10069800009A01911A6C42F080521A641B6C03F0A4
:1006A80080530193019B02B0704700BF003802409D
:1006B800002800F0E08170B582B00446036813F0AA
:1006C800010F3BD09F4B9B6803F00C03042B2CD0ED
:1006D8009C4B9B6803F00C03082B21D06368B3F58F
:1006E800803F4FD0B3F5A02F52D0964B1A6822F412
:1006F80080321A601A6822F480221A606368002B1C
:1007080050D000F0BDFC05468E4B1B6813F4003F2B
:1007180014D100F0B5FC401B6428F5D90320B1E1E1
:10072800884B5B6813F4800FD8D0864B1B6813F492
:10073800003F03D06368002B00F09F81236813F00B
:10074800020F54D07F4B9B6813F00C0F3ED07D4BAB
:100758009B6803F00C03082B33D0E368002B68D0A8
:10076800794B01221A6000F08BFC0546754B1B681B
:1007780013F0020F54D100F083FC401B0228F5D976
:1007880003207FE16F4A136843F480331360B5E7B1
:100798006C4B1A6842F480221A601A6842F480325C
:1007A8001A60ABE700F06CFC0546664B1B6813F457
:1007B800003FC3D000F064FC401B6428F5D9032037
:1007C80060E1604B5B6813F4800FC6D15D4B1B681A
:1007D80013F0020F03D0E368012B40F05081594A0F
:1007E800136823F0F803216943EAC10313602368FF
:1007F80013F0080F42D063696BB3534B0122C3F85F
:10080800802E00F03DFC05464E4B5B6F13F0020F47
:1008180034D100F035FC401B0228F5D9032031E122
:10082800484A136823F0F803216943EAC1031360B7
:10083800DDE7454B00221A6000F022FC0546414BDB
:100848001B6813F0020FD2D000F01AFC401B0228DC
:10085800F5D9032016E13C4B0022C3F8802E00F0A6
:100868000FFC0546374B5B6F13F0020F06D000F004
:1008780007FC401B0228F5D9032003E1236813F085
:10088800040F77D02F4B1B6C13F0805F33D10023FC
:1008980001932C4B1A6C42F080521A641B6C03F0C3
:1008A80080530193019B0125284B1B6813F4807F1B
:1008B80023D0A368012B34D0052B38D0214B1A6FD5
:1008C80022F001021A671A6F22F004021A67A3685D
:1008D800002B3DD000F0D4FB06461A4B1B6F13F0DB
:1008E800020F46D100F0CCFB801B41F288339842BE
:1008F800F3D90320C6E00025D6E7144A136843F469
:100908008073136000F0BCFB0646104B1B6813F4A1
:10091800807FCED100F0B4FB801B0228F5D90320DC
:10092800B0E0084A136F43F001031367CFE7054BA4
:100938001A6F42F004021A671A6F42F001021A672E
:10094800C5E700BF00380240000047420070004081
:1009580000F096FB0646524B1B6F13F0020F08D0AF
:1009680000F08EFB801B41F288339842F3D90320B4
:1009780088E0EDB9A369002B00F08380484A9268AB
:1009880002F00C02082A51D0022B17D0454B002246
:100998001A6600F075FB0446414B1B6813F0007F94
:1009A80042D000F06DFB001B0228F5D9032069E056
:1009B8003B4A136C23F080531364DBE7394B002266
:1009C8001A6600F05DFB0546354B1B6813F0007F87
:1009D80006D000F055FB401B0228F5D9032051E052
:1009E800E369226A1343626A43EA8213A26A5208DD
:1009F800013A43EA0243E26A43EA0263284A53603F
:100A0800284B01221A6600F03BFB0446244B1B6866
:100A180013F0007F06D100F033FB001B0228F5D944
:100A280003202FE000202DE000202BE0012B2BD00D
:100A38001B4B5B6803F48001E269914226D103F005
:100A48003F02216A8A4223D1616A47F6C0721A407E
:100A5800B2EB811F1ED103F44031A26A5208013A59
:100A6800B1EB024F18D103F07063E26AB3EB026F87
:100A780014D1002006E001207047012002E0012087
:100A880000E0002002B070BD0120FBE70120F9E77B
:100A98000120F7E70120F5E70120F3E70120F1E75E
:100AA800003802400000474208B5314B9B6803F00C
:100AB8000C03042B57D0082B57D12D4B5A6802F042
:100AC8003F025B6813F4800F2AD0294B5968C1F3A1
:100AD800881C4FEA4C11B1EB0C006EEB0E0E4FEA7E
:100AE8008E1343EA90638101091A63EB0E03DB005E
:100AF80043EA5173C90011EB0C0C43F1000359028E
:100B080000234FEA4C2041EADC51FFF759FB184B10
:100B18005B68C3F3014301335B00B0FBF3F025E0EE
:100B2800134B5968C1F3881C4FEA4C11B1EB0C0008
:100B38006EEB0E0E4FEA8E1343EA90638101091A99
:100B480063EB0E03DB0043EA5173C90011EB0C0C95
:100B580043F10003990200234FEA8C2041EA9C519B
:100B6800FFF72EFBD3E7034800E0034808BD00BFAA
:100B78000038024000127A000024F400002800F037
:100B88009B8070B50D4604464F4B1B6803F0070366
:100B98008B4208D2CBB24C4A1370136803F0070398
:100BA8008B4240F08B80236813F0020F17D013F0AC
:100BB800040F04D0454A936843F4E05393602368D4
:100BC80013F0080F04D0414A936843F460439360DC
:100BD8003E4A936823F0F003A1680B4393602368AF
:100BE80013F0010F32D06368012B21D09A1E012A1D
:100BF80025D9364A126812F0020F61D033498A6843
:100C080022F0030213438B6000F03AFA06462F4B9A
:100C18009B6803F00C036268B3EB820F16D000F0F8
:100C28002FFA801B41F288339842F0D9032042E022
:100C3800264A126812F4003FE0D101203BE0234A23
:100C4800126812F0007FD9D1012034E01E4B1B68D6
:100C580003F00703AB4207D9EAB21B4B1A701B68B3
:100C680003F00703AB422DD1236813F0040F06D01D
:100C7800164A936823F4E053E1680B4393602368B2
:100C880013F0080F07D0114A936823F460432169D1
:100C980043EAC1039360FFF707FF0C4B9B68C3F35C
:100CA80003130B4AD35CD8400A4B18600A4B1868E8
:100CB80000F09AF9002070BD012070470120FAE782
:100CC8000120F8E70120F6E7003C02400038024026
:100CD800301F00080800002004000020014B18689D
:100CE800704700BF0800002008B5FFF7F7FF044B66
:100CF8009B68C3F38223034AD35CD84008BD00BF76
:100D080000380240401F000808B5FFF7E7FF044B12
:100D18009B68C3F34233034AD35CD84008BD00BF85
:100D280000380240401F000800230F2B00F2E48027
:100D380070B582B060E085685E000324B44025EA9F
:100D48000405CC68B4402C438460456825EA020554
:100D58004C68C4F300129A402A4342605AE0DC0807
:100D6800083450F8246003F0070295000F22AA40C7
:100D780026EA020E0A69AA4042EA0E0240F8242036
:100D88005CE0072200E0002202FA0EF22A43023455
:100D98005A4D45F824205A4A14686FEA0C0224EA8E
:100DA8000C054E6816F4803F01D04CEA0405544CFB
:100DB8002560646802EA04054E6816F4003F01D015
:100DC8004CEA04054E4C6560A46802EA04054E68C6
:100DD80016F4801F01D04CEA0405494CA560E4686C
:100DE80022404D6815F4001F01D04CEA0402444C1F
:100DF800E26001330F2B7DD801229A400C6804EA87
:100E0800020C32EA0404F4D14C6804F00304013CF7
:100E1800012C90D94A6802F00302032A09D0C46859
:100E28005D000322AA4024EA02048A68AA402243F9
:100E3800C2604A6802F00302022A90D004684FEAAE
:100E4800430E032202FA0EF224EA02044A6802F070
:100E5800030202FA0EF2224302604A6812F0805F2F
:100E6800C7D000220192274A546C44F48044546449
:100E7800526C02F480420192019A9C08A51C1F4AF8
:100E880052F8255003F003024FEA820E0F2202FAAD
:100E98000EF225EA02051C4A90423FF474AF02F5AF
:100EA800806290421AD002F58062904218D002F512
:100EB8008062904216D002F58062904214D002F50A
:100EC8008062904212D002F58062904210D002F502
:100ED800806290423FF455AF082255E7012253E75C
:100EE800022251E703224FE704224DE705224BE790
:100EF800062249E702B070BD704700BF00380140C4
:100F0800003C014000380240000002400AB1816103
:100F18007047090481617047436901EA030221EAC5
:100F2800030141EA0241816170470000074AD36822
:100F380023F4E0631B041B0C000200F4E06003438D
:100F480043F0BF6343F40033D360704700ED00E023
:100F580000B5194BDB68C3F30223C3F1070CBCF1DE
:100F6800040F28BF4FF0040C03F1040EBEF1060F66
:100F780018D9033B4FF0FF3E0EFA0CFC21EA0C0196
:100F880099400EFA03F322EA0303194300280BDB06
:100F98000901C9B200F1604000F5614080F8001312
:100FA8005DF804FB0023E5E700F00F000901C9B272
:100FB800024B1954F4E700BF00ED00E014ED00E027
:100FC8000138B0F1807F0BD24FF0E0235861054A19
:100FD800F02182F823100020986107221A617047D7
:100FE8000120704700ED00E010B504460E4B18785C
:100FF8004FF47A73B3FBF0F30C4A1068B0FBF3F0CC
:10100800FFF7DEFF68B90F2C01D901200AE00022A2
:1010180021464FF0FF30FFF79BFF054B1C60002077
:1010280000E0012010BD00BF0000002008000020E3
:101038000400002008B50B4B1A6842F400721A60CD
:101048001A6842F480621A601A6842F480721A6060
:101058000320FFF76BFF0020FFF7C6FFFFF70CFB2D
:10106800002008BD003C0240034A1168034B1B786E
:101078000B441360704700BF8C0000200000002064
:10108800014B1868704700BF8C00002038B5044633
:10109800FFF7F6FF0546B4F1FF3F02D0044B1B787B
:1010A8001C44FFF7EDFF401BA042FAD338BD00BF38
:1010B80000000020034AD2F8883043F47003C2F8D5
:1010C8008830704700ED00E008B50A480A4B036015
:1010D8004FF4E133436000238360C36003610C2253
:1010E80042618361C36100F001F900B908BDFFF7EF
:1010F800E9F9FBE7900000200010014000B589B035
:10110800002303930493059306930793026803F15E
:10111800804303F588339A4202D009B05DF804FB96
:101128000021019103F594335A6C42F010025A647D
:101138005A6C02F010020192019A02911A6B42F065
:1011480001021A631B6B03F001030293029B4FF425
:10115800C06303930223049303230693072307938F
:1011680003A90248FFF7E0FDD7E700BF00000240EF
:1011780038B504460268136923F44053C1680B4329
:10118800136183680269134342691343C2691A43AE
:101198000168CB6823F4164323F00C031343CB6098
:1011A8000268536923F4407381690B4353610368F0
:1011B800314A934206D002F58062934202D0FFF78B
:1011C80093FD01E0FFF7A0FDE369B3F5004F29D0D7
:1011D8000021031849411B1841F10001C90041EAE7
:1011E8005371DB00181863684FEA83024FEA937360
:1011F80041F10001FEF7E4FF204DA5FB0032510943
:10120800642303FB11031B013233A5FB03235B0992
:1012180003F0F00202EB011203F00F0321681344FC
:101228008B6038BD0023021843EB0301121841F10B
:101238000001C90041EA5271D200101841F10001C1
:10124800626892185B41FEF7BBFF0C4DA5FB0032AC
:101258005109642303FB1103DB003233A5FB03238D
:101268005B095A0002F4F87202EB011203F007035B
:10127800216813448B60D4E7001001401F85EB51AF
:101288002DE9F84305460F4616469946DDF82080B5
:101298002C68246837EA04030CBF4FF0010C4FF0A8
:1012A800000CB4451FD1B8F1FF3FF1D0B8F1000FE1
:1012B80005D0FFF7E5FEA0EB09004045E8D92A680C
:1012C800D36823F4D073D3602A68536923F00103E9
:1012D8005361202385F83D3085F83E30002385F89A
:1012E8003C30032000E00020BDE8F88358B310B577
:1012F800044690F83D300BB3242384F83D3022682F
:10130800D36823F40053D3602046FFF731FF2268E7
:10131800136923F4904313612268536923F02A0365
:1013280053612268D36843F40053D36000202064DB
:10133800202384F83D3084F83E3010BD80F83C30DE
:10134800FFF7DCFED8E7012070472DE9F04182B0B5
:101358001E4690F83D30DBB2202B54D104460D4692
:101368009046002953D0002A53D090F83C30012BE6
:1013780051D0012380F83C3000230364212380F8F6
:101388003D30FFF77DFE0746A4F82480A4F82680A8
:10139800A368B3F5805F05D04FF00008002384F8F8
:1013A8003C3012E0236913B14FF00008F6E7A84675
:1013B8000025F3E738F8023B2268C3F308035360BB
:1013C800E28C92B2013A92B2E284E38C9BB273B19E
:1013D80000963B46002280212046FFF751FFE0B9E6
:1013E800002DE7D015F8012B23685A60E8E700962E
:1013F8003B46002240212046FFF742FF78B92023D0
:1014080084F83D3000E0022002B0BDE8F081012000
:10141800FAE70120F8E70220F6E70320F4E70320C3
:10142800F2E70000DFF834D00D480E490E4A0023D9
:1014380002E0D458C4500433C4188C42F9D30B4A80
:101448000B4C002301E013600432A242FBD3FFF7E8
:1014580031FE00F011F8FFF78BF87047000002200A
:101468000000002070000020BC1F00087000002051
:10147800E8000020FEE7000070B50D4D0D4C641B20
:10148800A4100026A64209D10B4D0C4C00F022FDF9
:10149800641BA4100026A64205D170BD55F8043B74
:1014A80098470136EEE755F8043B98470136F2E7CE
:1014B800B41F0008B41F0008B41F0008B81F0008B4
:1014C80002440346934200D1704703F8011BF9E731
:1014D80070B50E46054618B183690BB900F048FA95
:1014E800AB69AC6813B9284600F042FA2C4B9C4211
:1014F80020D16C68636EDB0705D4A389980502D4F4
:10150800A06D00F0D3FAA38919071DD52369DBB1B3
:10151800013EA36816F8011F013BA36039BB002BED
:1015280038DA22460A21284600F048F8013011D05E
:101538000A2511E01B4B9C4201D1AC68DAE71A4B33
:101548009C4208BFEC68D5E72146284600F088F899
:101558000028DDD04FF0FF35636EDA0705D4A38984
:101568009B0502D4A06D00F0A2FA284670BD002B9E
:1015780004DAA2699A4206DC0A2904D023685A1CB4
:1015880022601970C5E72246284600F017F8013096
:10159800BFD1DFE723680A255A1C22601D70DBE7EC
:1015A8006C1F00088C1F00084C1F0008024B0146E6
:1015B8001868FFF78DBF00BF0C000020F8B50E4675
:1015C8001446054618B183690BB900F0D1F9214BCF
:1015D8009C422BD16C68A369A360A3891A072FD5F5
:1015E80023696BB323692068C01A6369F6B2834222
:1015F800374604DC2146284600F026F930BBA368AC
:10160800013BA36023685A1C22601E706369013085
:10161800834204D0A389DB0706D50A2E04D12146CC
:10162800284600F011F988B93846F8BD0A4B9C42A3
:1016380001D1AC68CFE7094B9C4208BFEC68CAE708
:101648002146284600F00CF80028CBD04FF0FF3791
:10165800EAE700BF6C1F00088C1F00084C1F000839
:10166800324B70B51D6806460C4625B1AB6913B9F7
:10167800284600F07DF92E4B9C420FD16C68A38957
:10168800B4F90C2019072CD4DD0611D409233360D2
:1016980042F04003A3814FF0FF303EE0254B9C42CF
:1016A80001D1AC68EBE7244B9C4208BFEC68E6E745
:1016B800580712D5616B41B104F14403994202D035
:1016C800304600F05BFA00236363A38923F0240308
:1016D800A3810023636023692360A38943F008037F
:1016E800A38123694BB9A38903F42073B3F5007F61
:1016F80003D02146304600F001FAA089B4F90C2045
:1017080010F001030AD00023A36063695B42A36160
:10171800236943B910F08000BAD170BD810758BF62
:101728006369A360F4E70020F7E700BF0C0000201E
:101738006C1F00088C1F00084C1F00088A892DE9BF
:10174800F041054610070C4658D44B68002B05DCC1
:101758000B6C002B02DC0020BDE8F081E66A002E4D
:10176800F9D0002312F480522F682B6032D0606DBC
:10177800A3895A0705D56368C01A636B0BB1236C3C
:10178800C01A00230246E66A216A2846B047431C6D
:10179800A38906D129681D292CD82A4ACA40D60708
:1017A80028D500226260D9042269226004D5421C2F
:1017B80001D12B6803B96065616B2F600029CAD01D
:1017C80004F14403994202D0284600F0D7F90020DA
:1017D8006063C1E7216A01232846B047411CC7D18D
:1017E8002B68002BC4D01D2B01D0162B01D12F60E4
:1017F800B1E7A38943F04003A381ADE70F69002F48
:10180800A9D093070E6808BF4B690F6018BF002363
:10181800A6EB07088B60B8F1000F9CDD216AA66A69
:1018280043463A462846B047002806DCA38943F0D9
:101838004003A3814FF0FF308EE70744A8EB000870
:10184800E9E700BF0100402038B50B6905460C46A2
:1018580013B90025284638BD18B183690BB900F0C3
:1018680087F8144B9C421BD16C68B4F90C30002BE0
:10187800EFD0626ED00704D4990502D4A06D00F0B1
:1018880015F928462146FFF759FF636EDA07054622
:10189800E0D4A3899B05DDD4A06D00F008F9D9E751
:1018A800054B9C4201D1AC68DFE7044B9C4208BF62
:1018B800EC68DAE76C1F00088C1F00084C1F000852
:1018C800002310B50446C0E90033C0E9043383603F
:1018D80081814366C2818361194608225C30FFF723
:1018E800EFFD054B6362054BA362054BE362054BB5
:1018F8002462236310BD00BFF11C0008131D0008FB
:101908004B1D00086F1D0008014900F0AFB800BF6B
:101918005118000870B568224D1E55430E4605F152
:10192800740100F077F9044640B10021C0E90016BF
:101938000C30A06005F16802FFF7C2FD204670BDBB
:10194800014800F0B3B800BFD5000020014800F0FE
:10195800AEB800BFD5000020014800F0A7B800BF0E
:10196800D6000020014800F0A2B800BFD600002031
:1019780010B50446FFF7F0FFA3691BB1BDE810409E
:10198800FFF7F0BFC4E912332365134B134A1B68F2
:10199800A262A34204BF0123A361204600F020F8FD
:1019A8006060204600F01CF8A060204600F018F89F
:1019B8000022E06004216068FFF782FFA06801222E
:1019C8000921FFF77DFFE06802221221FFF778FF67
:1019D8000123A361D2E700BF481F000811190008BE
:1019E800F8B50746FFF7ACFF1E4B1E68B36913B97D
:1019F8003046FFF7BDFF4836D6E90134013B03D531
:101A080033680BB33668F7E7B4F90C50D5B9164B01
:101A1800E36004F15800656600F047F8FFF796FFA9
:101A2800C4E90155C4E904552560A5610822294681
:101A380004F15C00FFF744FDC4E90D55C4E91255F3
:101A48002046F8BD6834D9E704213846FFF762FF1D
:101A5800044630600028D5D1FFF778FF0C233B609F
:101A6800EEE700BF481F00080100FFFF2DE9F8431B
:101A78000646884600F148040027D4E90195B9F1E3
:101A8800010905D52468002CF7D13846BDE8F8834C
:101A9800AB89012B07D9B5F90E30013303D029469C
:101AA8003046C04707436835E9E7704770477047D5
:101AB80070B50E46B1F90E10002996B014461D46B1
:101AC80008DAB6F90C3000222A601A0610D44FF44E
:101AD80080630EE06A4600F06DF90028F1DB019A98
:101AE80002F47042A2F500535A425A412A60EEE7C6
:101AF80040230020236016B070BD00008B8973B5A9
:101B08009D0706460C4607D504F147032360236169
:101B18000123636102B070BD01AB6A46FFF7C8FFDD
:101B280000990546304600F075F848B9B4F90C300C
:101B38009A05EFD423F0030343F00203A381E3E7FC
:101B48000D4BB362A389206043F08003A381009BFF
:101B58006361019B20615BB1B4F90E10304600F05F
:101B68003BF928B1A38923F0030343F00103A381C0
:101B7800A0890543A581CDE71119000837B50029CB
:101B880044D051F8043C0190002BA1F10404B8BFE3
:101B9800E41800F043F91E4A0198136833B96360EA
:101BA800146003B0BDE8304000F03EB9A34208D944
:101BB800256861198B4201BF19685B684919216062
:101BC800EDE71A465B680BB1A342FAD911685518BC
:101BD800A5420BD1246821445418A3421160E0D1D6
:101BE8001C685B68536021441160DAE702D90C2352
:101BF8000360D6E7256861198B4204BF19685B68E2
:101C0800636004BF491921605460CAE703B030BD5E
:101C1800D8000020F8B5CD1C25F0030508350C2D9B
:101C280038BF0C25002D064601DBA94203D90C2339
:101C380033600020F8BD00F0F1F821490A68144625
:101C48009CB9204F3B6823B92146304600F03CF848
:101C580038602946304600F037F8431C23D10C235E
:101C68003360304600F0E0F8E3E723685B1B17D4E5
:101C78000B2B03D923601C44256004E06368A2424F
:101C88000CBF0B605360304600F0CEF804F10B0037
:101C9800231D20F00700C21ACCD01B1AA350C9E795
:101CA80022466468CCE7C41C24F00304A042E3D0B5
:101CB800211A304600F008F80130DDD1CFE700BF27
:101CC800D8000020DC00002038B5064D002304466B
:101CD80008462B6000F0E8F8431C02D12B6803B1DA
:101CE800236038BDE000002010B50C46B1F90E1095
:101CF80000F0A0F80028ABBF636DA3891B1823F47C
:101D08008053ACBF6365A38110BD2DE9F0411F4628
:101D18008B89DB0505460C46164605D5B1F90E102C
:101D28000223002200F068F8A389B4F90E1023F406
:101D38008053A38132463B462846BDE8F04100F077
:101D480017B810B50C46B1F90E1000F055F8431C41
:101D5800A38915BF606523F4805343F48053A3819E
:101D680018BFA38110BDB1F90E1000F013B8000020
:101D780038B5074D04460846114600222A601A461F
:101D880000F0A0F8431C02D12B6803B1236038BDD2
:101D9800E000002038B5064D0023044608462B60B5
:101DA80000F05AF8431C02D12B6803B1236038BDF8
:101DB800E000002038B5074D0023044608461146C8
:101DC8002B6000F051F8431C02D12B6803B123604B
:101DD80038BD00BFE000002038B5064D002304469A
:101DE80008462B6000F048F8431C02D12B6803B169
:101DF800236038BDE000002038B5074D044608468A
:101E0800114600222A601A4600F03EF8431C02D10F
:101E18002B6803B1236038BDE00000200148FFF7BC
:101E280045BE00BFD40000200148FFF740BE00BFF8
:101E3800D400002038B5074D044608461146002254
:101E48002A601A4600F028F8431C02D12B6803B117
:101E5800236038BDE0000020024B58221A604FF082
:101E6800FF307047E0000020024B58221A604FF004
:101E7800FF307047E0000020024B58221A60002013
:101E8800704700BFE0000020024B58221A604FF054
:101E9800FF307047E0000020024B58221A604FF0D4
:101EA800FF307047E0000020044A05491368002B02
:101EB80008BF0B461844106018467047E40000201D
:101EC800E8000020024B58221A604FF0FF3070479C
:101ED800E0000020F8B500BFF8BC08BC9E4670477B
:0C1EE800F8B500BFF8BC08BC9E4670476F
:101EF4007072696E74662066756E6374696F6E20A5
:101F04005541525431206F75747075742074657323
:101F1400747E7E210D0000000D0A55415254205458
:101F240072616E736D69740D0A0000000000000098
:101F34000000000001020304060708090000000075
:101F44000102030410000020000000000000000053
:101F5400000000000000000000000000000000007D
:101F6400000000000000000000000000000000006D
:101F7400000000000000000000000000000000005D
:101F8400000000000000000000000000000000004D
:101F9400000000000000000000000000000000003D
:081FA400000000000000000035
:081FAC004CE2FF7F0100000080
:041FB400AD01000873
:041FB8008901000893
:101FBC0001000000100000000024F40010000020BC
:101FCC00000000006C1F00088C1F00084C1F00084C
:101FDC0000000000000000000000000000000000F5
:101FEC0000000000000000000000000000000000E5
:101FFC0000000000000000000000000000000000D5
:10200C0000000000000000000000000000000000C4
:10201C0000000000000000000000000000000000B4
:040000050800142DAE
:00000001FF
